:0408F3007FD07E072D
:1008F700E4FDFCC3ED9FEE6480F8EC64809850152E
:10090700E4FBFA0BBB00010AEB64644A70F50DBD0A
:0509170000010C80DE70
:01091C0022B8
:10091D008FA0C2B0C2B1D2B27F057E001208F7C25D
:02092D00B222F4
:10092F008FA0D2B0C2B1D2B27F057E001208F7C23B
:02093F00B222E2
:1008C3007F3812091D7F147E001208F77F0F12096B
:1008D3001D7F147E001208F77F0112091D7F147E0D
:1008E300001208F77F8012091D7F147E000208F7AB
:10080000C290D293D292D2912094061208F37F37ED
:10081000222095061208F37F38222096061208F34C
:100820007F39222097061208F37F4122C291D2938A
:10083000D292D2902094061208F37F34222095069B
:100840001208F37F35222096061208F37F36222005
:1008500097061208F37F4222C292D293D291D2908D
:100860002094061208F37F31222095061208F37FA8
:1008700032222096061208F37F33222097061208B0
:10088000F37F4322C293D292D291D29020940A7FD6
:10089000147E001208F77F2A2220950A7F147E001A
:1008A0001208F77F302220960A7F147E001208F784
:1008B0007F232220970A7F147E001208F77F4422AC
:0308C0007F002294
:100941001208C3120800A907E960F812092F80F301
:03000000020951A1
:0C095100787FE4F6D8FD758107020941AB
:00000001FF
